:020000040800F2
:10000000005000205D1B00088117000887170008BA
:100010008D170008931700089917000800000000CA
:100020000000000000000000000000009F17000812
:10003000AB17000800000000B7170008C31700083E
:10004000A51B0008A51B0008A51B0008A51B000890
:10005000A51B0008A51B0008A51B0008A51B000880
:10006000A51B0008A51B0008A51B0008A51B000870
:10007000A51B0008A51B0008A51B0008A51B000860
:10008000A51B0008A51B0008A51B0008A51B000850
:10009000A51B0008A51B0008A51B0008A51B000840
:1000A000A51B0008A51B0008A51B0008A51B000830
:1000B000D1170008A51B0008A51B0008A51B0008F8
:1000C000A51B0008A51B0008A51B0008A51B000810
:1000D000A51B0008A51B0008A51B0008A51B000800
:1000E000A51B0008A51B0008A51B000800000000B8
:1000F0000000000000000000000000000000000000
:0C01000000000000000000005FF808F1A3
:10010C0010B5054C237833B9044B13B10448AFF345
:10011C0000800123237010BD9C0000200000000013
:10012C00A845000808B5034B1BB103490348AFF3BE
:10013C00008008BD00000000A0000020A8450008B9
:10014C00034613F8012B002AFBD1181A013870470B
:10015C0080B500AF00224FF48061054802F029F809
:10016C0001220821034802F024F800BF80BD00BF23
:10017C0000080140000C014080B500AF01220821AD
:10018C00054802F016F801224FF48061034802F092
:10019C0010F800BF80BD00BF000C014000080140FA
:1001AC0080B500AF00220821054802F002F80122B8
:1001BC004FF48061034801F0FCFF00BF80BD00BF1D
:1001CC00000C01400008014080B500AF0022202146
:1001DC00044801F0EEFF01221021024801F0E9FF72
:1001EC0000BF80BD000C014080B500AF0122102182
:1001FC00044801F0DEFF01222021024801F0D9FF62
:10020C0000BF80BD000C014080B500AF0022102162
:10021C00044801F0CEFF01222021024801F0C9FF61
:10022C0000BF80BD000C014080B500AF002208214A
:10023C000A4801F0BEFF00224FF48061084801F02B
:10024C00B8FF00221021054801F0B3FF0022202145
:10025C00024801F0AEFF00BF80BD00BF000C0140A2
:10026C000008014080B500AF064B1B68012B05D17F
:10027C00FFF796FF034B00221A6002E0014B0122AC
:10028C001A6080BDC800002080B500AF064B1B680B
:10029C00012B05D1FFF770FF034B00221A6002E01F
:1002AC00014B01221A6080BDC800002080B500AF50
:1002BC00064B1B68012B05D1FFF74AFF034B0022AD
:1002CC001A6002E0014B01221A6080BDC8000020B8
:1002DC0080B500AF064B1B68012B05D1FFF794FFCF
:1002EC00034B00221A6002E0014B01221A6080BD10
:1002FC00CC00002080B500AF064B1B68012B05D14C
:10030C00FFF772FF034B00221A6002E0014B01223F
:10031C001A6080BDCC00002080B500AF064B1B6876
:10032C00012B05D1FFF750FF034B00221A6002E0AE
:10033C00014B01221A6080BDCC00002080B500AFBB
:10034C009B4B1B68013B112B00F2268101A252F83A
:10035C0023F000BFA9030008C5030008F704000838
:10036C005F040008A5050008A5050008A505000800
:10037C00A5050008A5050008A5050008A5050008A9
:10038C00A5050008A5050008A5050008A505000899
:10039C00A5050008A50500088F050008FFF700FF5C
:1003AC00834B02221A60834B1B68184601F050FAEB
:1003BC00642001F075FAF8E0FFF7F2FE01F092FB11
:1003CC000346002B0CD0642001F06AFA7A4B1B68B0
:1003DC00013B794A1360784B1B68184600F022FDEC
:1003EC0001F05CFB0346012B14D1744B1B681846BF
:1003FC0001F02EFA6E4B04221A60642001F050FAC0
:10040C006E4B1B686E4A82FB03125211DB17D31A18
:10041C00694A1360002000F0D9FD0346002B00F060
:10042C00BD80FFF701FF624B12221A60654B12224E
:10043C001A60654B0C221A6001F06EFA01F07CFA1E
:10044C0001F08AFA642001F003FA604B15221A605D
:10045C00A4E0FFF77DFE01F045FB0346002B0CD01A
:10046C00642001F01DFA544B1B68013B524A136087
:10047C00514B1B68184600F0D5FC01F00FFB0346EE
:10048C00012B14D1524B1B68184601F0E1F9484B73
:10049C0003221A60642001F003FA4D4B1B68484A92
:1004AC0082FB03125211DB17D31A434A136000204C
:1004BC0000F08CFD0346002B72D0FFF7B5FE3C4BD1
:1004CC0012221A603F4B12221A603F4B0C221A6008
:1004DC0001F022FA01F030FA01F03EFA642001F04A
:1004EC00B7F93A4B15221A605AE0FFF745FE01F0B6
:1004FC00F9FA0346002B0CD0642001F0D1F92E4BF5
:10050C001B68013B2C4A13602B4B1B68184600F0F0
:10051C0089FC01F0C3FA0346012B14D1254B1B684F
:10052C00184601F095F9224B02221A60642001F062
:10053C00B7F9204B1B68224A82FB03125211DB17BE
:10054C00D31A1D4A1360002000F040FD0346002B17
:10055C0028D0FFF769FE164B12221A60194B122293
:10056C001A60194B0C221A6001F0D6F901F0E4F96B
:10057C0001F0F2F9642001F06BF9144B15221A60AA
:10058C0010E0144B1B68002B0ED0124B00221A608B
:10059C00074B01221A6007E000BF06E000BF04E031
:1005AC0000BF02E000BF00E000BF00BF80BD00BF85
:1005BC00000000200C000020B800002014000020D7
:1005CC001F85EB51040000200800002028000020AB
:1005DC0010000020C000002080B500AF534B1B68FA
:1005EC00013B112B00F2968001A252F823F000BFC0
:1005FC00450600086F060008D7060008A306000889
:10060C00210700082107000821070008210700081E
:10061C00210700082107000821070008210700080E
:10062C0021070008210700082107000821070008FE
:10063C00210700080B070008FFF7C6FD3B4B0422FF
:10064C001A603B4B1B68184601F016F9384B1B68B7
:10065C00384A82FB03125211DB17D31A364A136045
:10066C0061E0FFF7D1FD01F02BFA0346012B53D1CA
:10067C002F4B1B68184601F0FFF82C4B04221A6014
:10068C002B4B1B682B4A82FB03125211DB17D31A1C
:10069C00294A136040E0FFF797FD01F011FA034679
:1006AC00012B3BD1254B1B68184601F0E5F81F4B7D
:1006BC0003221A60214B1B681E4A82FB0312521143
:1006CC00DB17D31A1C4A136028E0FFF78DFD01F0ED
:1006DC00F7F90346012B23D1194B1B68184601F07F
:1006EC00CBF8124B02221A60154B1B68114A82FB85
:1006FC0003125211DB17D31A0F4A136010E0114B7F
:10070C001B68002B0ED0094B01221A600D4B0022E6
:10071C001A6007E000BF06E000BF04E000BF02E083
:10072C0000BF00E000BF00BF80BD00BF0400002080
:10073C00200000201F85EB51BC0000201C00002075
:10074C0018000020C400002080B500AF8E4B1B6841
:10075C000C3B062B00F2478301A252F823F000BF9A
:10076C00890700088F080008AD090008B30A0008C3
:10077C00D10B0008D70C0008F30D000801F08EF91E
:10078C000346002B14D0322001F062F8FFF74CFD29
:10079C007E4B1B6801337D4A13607C4B1B68022B1C
:1007AC0004DD7A4B00221A60FFF792FDFFF75AFD29
:1007BC00032000F00BFC0346002B0ED0FFF734FD9A
:1007CC00734B1B68642202FB03F3724A1360704B79
:1007DC0001221A606C4B0D221A60012000F0F6FB0E
:1007EC000346002B05D1012000F010FC0346002B22
:1007FC001AD0674B1B685A1C674B83FB02135911A9
:10080C00D317CB1A642101FB03F3D31A604A13608C
:10081C005F4B1B68002B02D15D4B01221A605C4BB5
:10082C001B68184600F0FEFA022000F0CFFB0346CE
:10083C00002B05D1022000F0E9FB0346002B10D061
:10084C00534B1B68013B524A1360514B1B68002BE6
:10085C0002D14F4B63221A604D4B1B68184600F0B7
:10086C00E1FA002000F0B2FB0346002B00F0BD8241
:10087C00FFF7DAFC464B01221A60434B0D221A603B
:10088C00B3E201F00BF90346002B14D0322000F038
:10089C00DFFFFFF7C9FCFFF7F7FC3C4B1B6801338C
:1008AC003A4A1360394B1B68022B04DD374B00228C
:1008BC001A60FFF71FFD032000F088FB0346002B96
:1008CC000ED0FFF7B1FC324B1B68642202FB03F322
:1008DC00324A13602E4B01221A602B4B0E221A60E7
:1008EC00012000F073FB0346002B05D1012000F022
:1008FC008DFB0346002B1AD0254B1B685A1C264B2C
:10090C0083FB02135911D317CB1A642101FB03F398
:10091C00D31A1F4A13601E4B1B68002B02D11C4BB1
:10092C0001221A601A4B1B68184600F07BFA022051
:10093C0000F04CFB0346002B05D1022000F066FBB7
:10094C000346002B10D0124B1B68013B104A13605E
:10095C000F4B1B68002B02D10D4B63221A600C4B02
:10096C001B68184600F05EFA002000F02FFB0346CF
:10097C00002B00F03C82FFF757FC054B01221A605C
:10098C00014B0E221A6032E208000020D000002039
:10099C00240000200C0000201F85EB5110000020CB
:1009AC0001F07CF80346002B14D0322000F050FFED
:1009BC00FFF73AFCFFF77AFC7C4B1B6801337B4A50
:1009CC0013607A4B1B68022B04DD784B00221A60F3
:1009DC00FFF7A2FC032000F0F9FA0346002B0ED01F
:1009EC00FFF722FC724B1B68642202FB03F3714A73
:1009FC0013606F4B01221A606F4B0F221A6001209B
:100A0C0000F0E4FA0346002B05D1012000F0FEFAB9
:100A1C000346002B1AD0664B1B685A1C674B83FB92
:100A2C0002135911D317CB1A642101FB03F3D31A08
:100A3C005F4A13605E4B1B68002B02D15C4B01229A
:100A4C001A605B4B1B68184600F0ECF9022000F0B2
:100A5C00BDFA0346002B05D1022000F0D7FA03465D
:100A6C00002B10D0524B1B68013B514A1360504B6A
:100A7C001B68002B02D14E4B63221A604C4B1B6837
:100A8C00184600F0CFF9002000F0A0FA0346002B26
:100A9C0000F0AF81FFF7C8FB454B01221A60464BB3
:100AAC000F221A60A5E100F0F9FF0346002B14D0C9
:100ABC00322000F0CDFEFFF7B7FBFFF709FC3B4BF4
:100ACC001B680133394A1360384B1B68022B04DD59
:100ADC00364B00221A60FFF7C5FB032000F076FAB4
:100AEC000346002B0ED0FFF79FFB314B1B68642293
:100AFC0002FB03F3324A13602D4B01221A602E4B7A
:100B0C0010221A60012000F061FA0346002B05D177
:100B1C00012000F07BFA0346002B1AD0244B1B68F3
:100B2C005A1C264B83FB02135911D317CB1A642181
:100B3C0001FB03F3D31A1E4A13601D4B1B68002BD9
:100B4C0002D11B4B01221A60194B1B68184600F08E
:100B5C0069F9022000F03AFA0346002B05D1022075
:100B6C0000F054FA0346002B10D0114B1B68013BCC
:100B7C000F4A13600E4B1B68002B02D10C4B6322E7
:100B8C001A600B4B1B68184600F04CF9002000F063
:100B9C001DFA0346002B00F02E81FFF745FB044B9A
:100BAC0001221A60044B10221A6024E1D0000020AC
:100BBC002400002014000020080000201F85EB51A9
:100BCC001800002000F06AFF0346002B14D03220DE
:100BDC0000F03EFEFFF728FBFFF78CFB894B1B68F0
:100BEC000133884A1360874B1B68022B04DD854B4D
:100BFC0000221A60FFF748FB032000F0E7F90346D8
:100C0C00002B0ED0FFF710FB7F4B1B68642202FBFE
:100C1C0003F37E4A13607C4B01221A607C4B112239
:100C2C001A60012000F0D2F90346002B05D10120F7
:100C3C0000F0ECF90346002B1AD0734B1B685A1CBE
:100C4C00744B83FB02135911D317CB1A642101FB8C
:100C5C0003F3D31A6C4A13606B4B1B68002B02D145
:100C6C00694B01221A60684B1B68184600F0DAF8D1
:100C7C00022000F0ABF90346002B05D1022000F056
:100C8C00C5F90346002B10D05F4B1B68013B5E4A35
:100C9C0013605D4B1B68002B02D15B4B63221A6007
:100CAC00594B1B68184600F0BDF8002000F08EF977
:100CBC000346002B00F0A180FFF7B6FA524B01223D
:100CCC001A60534B11221A6097E000F0E7FE0346BE
:100CDC00002B14D0322000F0BBFDFFF7A5FAFFF774
:100CEC001BFB484B1B680133464A1360454B1B6882
:100CFC00022B04DD434B00221A60FFF7D7FA0320C6
:100D0C0000F064F90346002B14D0FFF78DFA3E4B2C
:100D1C001B68642202FB03F33F4A13603A4B012227
:100D2C001A603E4B01221A603D4B01221A60384B6F
:100D3C0012221A60012000F049F90346002B05D15C
:100D4C00012000F063F90346002B1AD02E4B1B68D0
:100D5C005A1C304B83FB02135911D317CB1A642145
:100D6C0001FB03F3D31A284A1360274B1B68002B93
:100D7C0002D1254B01221A60234B1B68184600F048
:100D8C0051F8022000F022F90346002B05D1022075
:100D9C0000F03CF90346002B10D01B4B1B68013BA9
:100DAC00194A1360184B1B68002B02D1164B632297
:100DBC001A60154B1B68184600F034F8002000F040
:100DCC0005F90346002B1AD00F4B01221A60FFF7CE
:100DDC002BFA124B01221A60114B01221A600C4B98
:100DEC0012221A600BE000BF0AE000BF08E000BF4F
:100DFC0006E000BF04E000BF02E000BF00E000BF5F
:100E0C0000BF80BDD0000020240000201C0000206A
:100E1C00080000201F85EB5120000020C00000209E
:100E2C00C400002080B58AB000AF786007F10803D9
:100E3C007A680A49184602F037FF07F1080318468A
:100E4C00FFF77EF903469AB207F108010A2304481A
:100E5C0002F08DFD00BF2837BD4680BDC04500089F
:100E6C009001002090B583B000AF0023FB7192E09D
:100E7C00FA79FB794C49895C4C4AD154FA79FB7963
:100E8C004B49895C484AD154FB79002B09D1FC7938
:100E9C000121484801F076F903461A46444B1A558D
:100EAC0025E0FB79012B09D1FC790221414801F0A5
:100EBC0069F903461A463E4B1A5518E0FB79022B8A
:100ECC0009D1FC7910213B4801F05CF903461A4624
:100EDC00374B1A550BE0FB79032B08D1FC79012118
:100EEC00354801F04FF903461A46314B1A55FB7938
:100EFC002D4AD25CFB792E49CB5C9A4248D1FB79C6
:100F0C00294AD25CFB792949CB5C9A4240D1FB79C6
:100F1C00264AD25CFB792949CB5C9A421AD0FA79E1
:100F2C00FB792249895C254AD154FB79234AD35C4D
:100F3C00002B05D1FB79224A012142F8231027E02E
:100F4C00FB79204A002122F81310FB791B4A01215E
:100F5C00D1541DE0FB79194AD35C002B18D1FB79D5
:100F6C00184A32F81330312B12D8FB79154A32F863
:100F7C001320013291B2134A22F81310FB79114A53
:100F8C0032F81330322B03D1FB790F4A0121D154A3
:100F9C00FB790133FB71FB79032B7FF669AF00BF43
:100FAC0000BF0C37BD4690BDE8000020EC000020CF
:100FBC00E400002000080140000C0140F00000207B
:100FCC00D4000020F8000020F400002080B483B08E
:100FDC0000AF0346FB71FB79032B01D900230DE015
:100FEC00FB79094A52F82330012B06D1FB79064ACA
:100FFC00002142F82310012300E0002318460C378F
:10100C00BD4680BC704700BFD400002080B483B0C4
:10101C0000AF0346FB71FB79032B01D9002310E0D1
:10102C00FB790A4AD35C012B0AD1FB79074A0021D0
:10103C00D154FB79064A002122F81310012300E059
:10104C00002318460C37BD4680BC7047F4000020C6
:10105C00F800002080B500AF00F0A0FD00F020F8F3
:10106C0000F04CF900F05EF800F01EF900F0A6F864
:10107C00094801F021FD0021084801F0C7FD32208C
:10108C0000F0E6FBFFF75AF9FFF7A6FAFFF75CFB57
:10109C0000F0B4F9F6E700BF000100204801002081
:1010AC0080B590B000AF07F1180328220021184634
:1010BC0002F0F2FD3B1D00221A605A609A60DA6061
:1010CC001A610223BB610123BB621023FB62022362
:1010DC007B630023BB634FF46013FB6307F11803BE
:1010EC00184601F07FF80346002B01D000F080F980
:1010FC000F237B600223BB600023FB604FF48063F3
:10110C003B6100237B613B1D0221184601F0ECFA88
:10111C000346002B01D000F06BF900BF4037BD46F1
:10112C0080BD000080B586B000AF07F10803002237
:10113C001A605A609A60DA603B4600221A605A6064
:10114C001D4B4FF080421A601B4B3F225A601A4BCA
:10115C0000229A60184B42F20F72DA60164B002292
:10116C001A61154B00229A61134801F055FC034695
:10117C00002B01D000F03CF94FF48053BB6007F119
:10118C00080319460C4801F0A9FF0346002B01D0B7
:10119C0000F02EF900233B6000237B603B46194690
:1011AC00054802F027FB0346002B01D000F020F984
:1011BC0000BF1837BD4680BD0001002080B58EB041
:1011CC0000AF07F1280300221A605A609A60DA60B7
:1011DC0007F1200300221A605A603B1D00221A609E
:1011EC005A609A60DA601A615A619A612C4B2D4AE6
:1011FC001A602B4B3F225A60294B00229A60284BD5
:10120C0040F6FF72DA60264B00221A61244B002252
:10121C009A61234801F000FC0346002B01D000F03A
:10122C00E7F84FF48053BB6207F1280319461C48BA
:10123C0001F054FF0346002B01D000F0D9F81848F8
:10124C0001F08CFC0346002B01D000F0D1F80023F8
:10125C003B6200237B6207F120031946104802F021
:10126C00C9FA0346002B01D000F0C2F860237B6062
:10127C000023BB600023FB6000237B613B1D00222D
:10128C001946074801F06CFE0346002B01D000F014
:10129C00AFF8034800F0F2F900BF3837BD4680BD07
:1012AC00480100200004004080B500AF114B124AE9
:1012BC001A60104B4FF4E1325A600E4B00229A60C8
:1012CC000C4B0022DA600B4B00221A61094B0822EE
:1012DC005A61084B00229A61064B0022DA610548DC
:1012EC0002F0F8FA0346002B01D000F081F800BFA1
:1012FC0080BD00BF900100200044004080B586B046
:10130C0000AF07F1080300221A605A609A60DA6095
:10131C002E4B9B692D4A43F0040393612B4B9B6925
:10132C0003F004037B607B68284B9B69274A43F0DE
:10133C0008039361254B9B6903F008033B603B68F2
:10134C0000224FF48761224800F033FF00224FF453
:10135C00A061204800F02DFF1323BB600023FB602D
:10136C0001233B6107F1080319461A4800F086FD7A
:10137C000123BB600023FB6001233B6107F10803E1
:10138C001946134800F07AFD4FF48763BB600123C4
:10139C00FB6000233B6102237B6107F108031946C4
:1013AC000B4800F06BFD4FF4A063BB600123FB60A6
:1013BC0000233B6102237B6107F1080319460548B2
:1013CC0000F05CFD00BF1837BD4680BD0010024028
:1013DC00000C01400008014080B582B000AF78607D
:1013EC0000F0CAFAFFF73EFD00BF0837BD4680BDCE
:1013FC0080B400AF72B600BFFEE7000080B500AF4E
:10140C00634B1B68152B7AD0152B00F3B780132B6D
:10141C0002D0142B46D0B1E000224FF480615D481D
:10142C0000F0C7FE01224FF480715B4800F0C1FE52
:10143C0000F06AFB0346002B02D0554B15221A60B4
:10144C0000F074FB0346002B12D0544B1B68052B89
:10145C000EDC524B1B68C3F1050213469B00134470
:10146C009B001A464E4B1B685A63642000F040FAEE
:10147C004C4B1B68042B03D04A4B1B68032B06D127
:10148C00434B14221A60464B1B6800225A630320FC
:10149C00FFF79CFD0346002B72D04FF47A7000F0DE
:1014AC0013FA6DE001224FF480613A4800F081FE9E
:1014BC0000224FF48071384800F07BFE00F024FBD2
:1014CC000346002B06D0324B15221A60344B1B6896
:1014DC0000225A63334B1B68022B05D12C4B132271
:1014EC001A60642000F004FA0320FFF76FFD034636
:1014FC00002B47D04FF47A7000F0E6F942E000225E
:10150C004FF48061234800F054FE00224FF48071A8
:10151C00214800F04EFE224B1B6800225A63214BDF
:10152C001B68122B30D01F4B1B68022B10D10320D1
:10153C00FFF74CFD0346002B0AD0154B13221A6003
:10154C004FF47A7000F0C0F9012000F0D1F91BE0E3
:10155C00144B1B68042B03D0124B1B68032B13D1A9
:10156C000320FFF733FD0346002B0DD0084B14224C
:10157C001A604FF47A7000F0A7F905E000BF04E0A0
:10158C0000BF02E000BF00E000BF00BF80BD00BF95
:10159C0028000020000C014000080140B800002089
:1015AC00480100200000002080B485B000AF154B2E
:1015BC009B69144A43F001039361124B9B6903F03E
:1015CC000103BB60BB680F4BDB690E4A43F08053D1
:1015DC00D3610C4BDB6903F080537B607B680A4B57
:1015EC005B68FB60FB6823F0E063FB60FB6843F027
:1015FC000073FB60044AFB68536000BF1437BD46A0
:10160C0080BC7047001002400000014080B584B0DF
:10161C0000AF78607B681B68B3F1804F14D1154B19
:10162C00DB69144A43F00103D361124BDB6903F00D
:10163C000103FB60FB68002200211C2000F0E7FB8B
:10164C001C2000F000FC10E07B681B680A4A9342E7
:10165C000BD1084BDB69074A43F00203D361054BFE
:10166C00DB6903F00203BB60BB6800BF1037BD46EB
:10167C0080BD00BF001002400004004080B588B05F
:10168C0000AF786007F1100300221A605A609A606C
:10169C00DA607B681B680F4A934217D10E4B9B692B
:1016AC000D4A43F0040393610B4B9B6903F0040355
:1016BC00FB60FB6840233B6102237B610223FB61DF
:1016CC0007F110031946054800F0D8FB00BF20377E
:1016DC00BD4680BD000400400010024000080140DF
:1016EC0080B588B000AF786007F1100300221A6053
:1016FC005A609A60DA607B681B681B4A93422FD150
:10170C001A4BDB69194A43F40033D361174BDB697D
:10171C0003F40033FB60FB68144B9B69134A43F0E2
:10172C0004039361114B9B6903F00403BB60BB681A
:10173C0004233B6102237B610323FB6107F110034C
:10174C0019460B4800F09AFB08233B6100237B6190
:10175C000023BB6107F110031946054800F08EFB0E
:10176C0000BF2037BD4680BD004400400010024041
:10177C000008014080B400AFFEE780B400AFFEE784
:10178C0080B400AFFEE780B400AFFEE780B400AFDA
:10179C00FEE780B400AF00BFBD4680BC704780B48C
:1017AC0000AF00BFBD4680BC704780B400AF00BF27
:1017BC00BD4680BC704780B500AF00F035FA00BF65
:1017CC0080BD000080B500AF024801F0C1FA00BF37
:1017DC0080BD00BF0001002080B586B000AF7860EE
:1017EC00144A154BD31A7B617B693B61134B1B6805
:1017FC00002B02D1114B124A1A60104B1A687B68ED
:10180C0013443A699A4207D202F01CFA03460C229E
:10181C001A604FF0FF3309E0084B1B68FB60074B65
:10182C001A687B681344054A1360FB68184618371E
:10183C00BD4680BD0050002000040000D4010020F3
:10184C002802002080B400AF00BFBD4680BC7047AA
:10185C0080B483B000AF7860054A7B681360054B99
:10186C0000221A6000BF0C37BD4680BC704700BF19
:10187C00DC010020F801002080B483B000AF786058
:10188C00054A7B681360054B00221A6000BF0C37B9
:10189C00BD4680BC704700BFE0010020FC01002069
:1018AC0080B483B000AF7860054A7B681360054B49
:1018BC0000221A6000BF0C37BD4680BC704700BFC9
:1018CC00E40100200002002080B483B000AF7860F7
:1018DC00054A7B681360054B00221A6000BF0C3769
:1018EC00BD4680BC704700BFEC0100200802002000
:1018FC0080B483B000AF7860054A7B681360054BF9
:10190C0000221A6000BF0C37BD4680BC704700BF78
:10191C00F00100200C02002080B400AF044B002228
:10192C001A60044B00221A6000BFBD4680BC704791
:10193C00DC010020F801002080B400AF044B002231
:10194C001A60044B00221A6000BFBD4680BC704771
:10195C00E0010020FC01002080B400AF044B002209
:10196C001A60044B00221A6000BFBD4680BC704751
:10197C00E40100200002002080B400AF394B1B684A
:10198C00002B0BDD374B1B68013B364A1360354B84
:10199C001B68002B02DC344B01221A60334B1B6892
:1019AC00002B0BDD314B1B68013B304A13602F4B76
:1019BC001B68002B02DC2E4B01221A602D4B1B687E
:1019CC00002B0BDD2B4B1B68013B2A4A1360294B68
:1019DC001B68002B02DC284B01221A60274B1B686A
:1019EC00002B0BDD254B1B68013B244A1360234B5A
:1019FC001B68002B02DC224B01221A60214B1B6856
:101A0C00002B0BDD1F4B1B68013B1E4A13601D4B4B
:101A1C001B68002B02D11C4B01221A601B4B1B684C
:101A2C00002B0BDD194B1B68013B184A1360174B3D
:101A3C001B68002B02D1164B01221A60154B1B6838
:101A4C00002B0BDD134B1B68013B124A1360114B2F
:101A5C001B68002B02D1104B01221A6000BFBD463F
:101A6C0080BC7047D8010020F4010020DC0100206C
:101A7C00F8010020E0010020FC010020E40100201E
:101A8C0000020020E801002004020020EC010020EC
:101A9C0008020020F00100200C02002080B400AFEE
:101AAC00064B1B68012B04D1044B00221A60012346
:101ABC0000E000231846BD4680BC7047F8010020AA
:101ACC0080B400AF064B1B68012B04D1044B0022E1
:101ADC001A60012300E000231846BD4680BC704705
:101AEC00FC01002080B400AF064B1B68012B04D115
:101AFC00044B00221A60012300E000231846BD4667
:101B0C0080BC70470002002080B400AF064B1B68FD
:101B1C00012B04D1044B00221A60012300E00023A6
:101B2C001846BD4680BC70470802002080B400AF48
:101B3C00064B1B68012B04D1044B00221A600123B5
:101B4C0000E000231846BD4680BC70470C02002004
:101B5C000C480D490D4A002302E0D458C4500433FC
:101B6C00C4188C42F9D30A4A0A4C002301E01360D2
:101B7C000432A242FBD3FFF765FE02F069F8FFF7CF
:101B8C0069FA7047000000209C00002034460008D1
:101B9C009C00002024020020FEE7000080B500AF6E
:101BAC00084B1B68074A43F010031360032000F036
:101BBC0023F90F2000F008F8FFF7F6FC0023184675
:101BCC0080BD00BF0020024080B582B000AF7860BD
:101BDC00124B1A68124B1B7819464FF47A73B3FBED
:101BEC00F1F3B2FBF3F3184600F03BF90346002B7C
:101BFC0001D001230EE07B680F2B0AD800227968F4
:101C0C004FF0FF3000F003F9064A7B6813600023A5
:101C1C0000E0012318460837BD4680BD2C0000208B
:101C2C00340000203000002080B400AF054B1B783E
:101C3C001A46054B1B681344034A136000BFBD468C
:101C4C0080BC7047340000201002002080B400AF2C
:101C5C00024B1B681846BD4680BC70471002002022
:101C6C0080B485B000AF78607B6803F00703FB603D
:101C7C000C4BDB68BB60BA684FF6FF031340BB60CC
:101C8C00FB681A02BB68134343F0BF6343F4003391
:101C9C00BB60044ABB68D36000BF1437BD4680BC30
:101CAC00704700BF00ED00E080B400AF044BDB6870
:101CBC001B0A03F007031846BD4680BC704700BFE3
:101CCC0000ED00E080B483B000AF0346FB7197F9E0
:101CDC000730002B0BDBFB7903F01F02064997F949
:101CEC0007305B09012000FA02F241F8232000BF03
:101CFC000C37BD4680BC704700E100E080B483B077
:101D0C0000AF03463960FB7197F90730002B0ADBF3
:101D1C003B68DAB20C4997F907301201D2B20B4486
:101D2C0083F800230AE03B68DAB20849FB7903F038
:101D3C000F03043B1201D2B20B441A7600BF0C37CE
:101D4C00BD4680BC704700BF00E100E000ED00E044
:101D5C0080B489B000AFF860B9607A60FB6803F0BA
:101D6C000703FB61FB69C3F10703042B28BF0423A2
:101D7C00BB61FB690433062B02D9FB69033B00E012
:101D8C0000237B614FF0FF32BB6902FA03F3DA43A5
:101D9C00BB681A407B699A404FF0FF317B6901FAAE
:101DAC0003F3D9437B680B40134318462437BD46D5
:101DBC0080BC704780B582B000AF78607B68013B17
:101DCC00B3F1807F01D301230FE00A4A7B68013B0A
:101DDC0053600F214FF0FF30FFF790FF054B0022AF
:101DEC009A60044B07221A60002318460837BD4638
:101DFC0080BD00BF10E000E080B582B000AF78601D
:101E0C007868FFF72DFF00BF0837BD4680BD80B551
:101E1C0086B000AF0346B9607A60FB7300237B6128
:101E2C00FFF742FF78617A68B9687869FFF790FF2D
:101E3C00024697F90F3011461846FFF75FFF00BFB7
:101E4C001837BD4680BD80B582B000AF0346FB712C
:101E5C0097F907301846FFF735FF00BF0837BD4626
:101E6C0080BD80B582B000AF78607868FFF7A2FFC4
:101E7C00034618460837BD4680BD000080B48BB0C1
:101E8C0000AF7860396000237B6200233B6269E11C
:101E9C0001227B6A02FA03F3FB613B681B68FA6957
:101EAC001340BB61BA69FB699A4240F058813B68A8
:101EBC005B689A4A93425ED0984A934275D8984A86
:101ECC00934258D0964A93426FD8964A934252D036
:101EDC00944A934269D8944A93424CD0924A934282
:101EEC0063D8924A934246D0904A93425DD8122BC3
:101EFC002AD8122B59D801A252F823F0831F0008BC
:101F0C005D1F00086F1F0008B11F0008B71F0008F5
:101F1C00B71F0008B71F0008B71F0008B71F00083D
:101F2C00B71F0008B71F0008B71F0008B71F00082D
:101F3C00B71F0008B71F0008B71F0008B71F00081D
:101F4C00651F0008791F0008794A934213D02CE0D2
:101F5C003B68DB683B6229E03B68DB6804333B622F
:101F6C0024E03B68DB6808333B621FE03B68DB68BE
:101F7C000C333B621AE03B689B68002B02D10423B4
:101F8C003B6213E03B689B68012B05D108233B6245
:101F9C007B68FA691A6109E008233B627B68FA697D
:101FAC005A6103E000233B6200E000BFBB69FF2BDA
:101FBC0001D87B6801E07B6804337B61BB69FF2B34
:101FCC0002D87B6A9B0002E07B6A083B9B003B616A
:101FDC007B691A680F213B6901FA03F3DB431A4052
:101FEC00396A3B6901FA03F31A437B691A603B684F
:101FFC005B6803F08053002B00F0B1804D4B9B6964
:10200C004C4A43F0010393614A4B9B6903F0010373
:10201C00BB60BB68484A7B6A9B08023352F823308A
:10202C00FB607B6A03F003039B000F2202FA03F3AD
:10203C00DB43FA681340FB607B68404A934213D041
:10204C007B683F4A93420DD07B683E4A934207D04F
:10205C007B683D4A934201D1032306E0042304E04C
:10206C00022302E0012300E000237A6A02F003025B
:10207C0092009340FA681343FB602F497B6A9B08DC
:10208C000233FA6841F823203B685B6803F4803321
:10209C00002B06D02D4B1A682C49BB6913430B60DF
:1020AC0006E02A4B1A68BB69DB43284913400B60D6
:1020BC003B685B6803F40033002B06D0234B5A6853
:1020CC002249BB6913434B6006E0204B5A68BB693D
:1020DC00DB431E4913404B603B685B6803F4801381
:1020EC00002B06D0194B9A681849BB6913438B60B7
:1020FC0006E0164B9A68BB69DB43144913408B60AE
:10210C003B685B6803F40013002B21D00F4BDA689B
:10211C000E49BB691343CB6021E000BF00003210B5
:10212C0000003110000022100000211000001210DD
:10213C000000111000100240000001400008014096
:10214C00000C01400010014000140140000401404B
:10215C000B4BDA68BB69DB4309491340CB607B6AE4
:10216C0001337B623B681A687B6A22FA03F3002B0B
:10217C007FF48EAE00BF00BF2C37BD4680BC7047CD
:10218C000004014080B485B000AF78600B467B80C2
:10219C007B689A687B881340002B02D00123FB7369
:1021AC0001E00023FB73FB7B18461437BD4680BC53
:1021BC00704780B483B000AF78600B467B801346C9
:1021CC007B707B78002B03D07A887B681A6103E0E4
:1021DC007B881A047B681A6100BF0C37BD4680BC33
:1021EC007047000080B586B000AF78607B68002B2C
:1021FC0001D1012372E27B681B6803F00103002B01
:10220C0000F08780924B5B6803F00C03042B0CD01E
:10221C008F4B5B6803F00C03082B12D18C4B5B6863
:10222C0003F48033B3F5803F0BD1894B1B6803F467
:10223C000033002B6CD07B685B68002B68D10123CA
:10224C004CE27B685B68B3F5803F06D1804B1B6822
:10225C007F4A43F4803313602EE07B685B68002B6D
:10226C000CD17B4B1B687A4A23F480331360784B78
:10227C001B68774A23F4802313601DE07B685B683E
:10228C00B3F5A02F0CD1724B1B68714A43F4802319
:10229C0013606F4B1B686E4A43F4803313600BE082
:1022AC006B4B1B686A4A23F480331360684B1B68C2
:1022BC00674A23F4802313607B685B68002B13D080
:1022CC00FFF7C4FC386108E0FFF7C0FC02463B692D
:1022DC00D31A642B01D9032300E25D4B1B6803F472
:1022EC000033002BF0D014E0FFF7B0FC386108E0AD
:1022FC00FFF7ACFC02463B69D31A642B01D90323CC
:10230C00ECE1534B1B6803F40033002BF0D100E0DD
:10231C0000BF7B681B6803F00203002B63D04C4B9F
:10232C005B6803F00C03002B0BD0494B5B6803F08C
:10233C000C03082B1CD1464B5B6803F48033002B39
:10234C0016D1434B1B6803F00203002B05D07B68AE
:10235C001B69012B01D00123C0E13D4B1B6823F00D
:10236C00F8027B685B69DB00394913430B603AE088
:10237C007B681B69002B20D0364B01221A60FFF7BB
:10238C0065FC386108E0FFF761FC02463B69D31A33
:10239C00022B01D90323A1E12D4B1B6803F002038F
:1023AC00002BF0D02A4B1B6823F0F8027B685B698A
:1023BC00DB00274913430B6015E0264B00221A6003
:1023CC00FFF744FC386108E0FFF740FC02463B692C
:1023DC00D31A022B01D9032380E11D4B1B6803F098
:1023EC000203002BF0D17B681B6803F00803002B61
:1023FC003AD07B689B69002B19D0174B01221A60CD
:10240C00FFF724FC386108E0FFF720FC02463B692B
:10241C00D31A022B01D9032360E10D4B5B6A03F045
:10242C000203002BF0D0012000F0D8FA1CE00A4B7C
:10243C0000221A60FFF70AFC38610FE0FFF706FC78
:10244C0002463B69D31A022B08D9032346E100BF8D
:10245C00001002400000424280044242924B5B6AF0
:10246C0003F00203002BE9D17B681B6803F0040323
:10247C00002B00F0A6800023FB758B4BDB6903F06F
:10248C008053002B0DD1884BDB69874A43F0805376
:10249C00D361854BDB6903F08053BB60BB680123C0
:1024AC00FB75824B1B6803F48073002B18D17F4B98
:1024BC001B687E4A43F480731360FFF7C7FB3861D7
:1024CC0008E0FFF7C3FB02463B69D31A642B01D922
:1024DC00032303E1754B1B6803F48073002BF0D0CE
:1024EC007B68DB68012B06D16F4B1B6A6E4A43F08D
:1024FC00010313622DE07B68DB68002B0CD16A4B67
:10250C001B6A694A23F001031362674B1B6A664A14
:10251C0023F0040313621CE07B68DB68052B0CD1F1
:10252C00614B1B6A604A43F0040313625E4B1B6AE7
:10253C005D4A43F0010313620BE05B4B1B6A5A4A82
:10254C0023F001031362584B1B6A574A23F0040310
:10255C0013627B68DB68002B15D0FFF777FB3861C3
:10256C000AE0FFF773FB02463B69D31A41F288324B
:10257C00934201D90323B1E04B4B1B6A03F00203D6
:10258C00002BEED014E0FFF761FB38610AE0FFF797
:10259C005DFB02463B69D31A41F28832934201D962
:1025AC0003239BE0404B1B6A03F00203002BEED18C
:1025BC00FB7D012B05D13C4BDB693B4A23F080535F
:1025CC00D3617B68DB69002B00F08780364B5B683E
:1025DC0003F00C03082B61D07B68DB69022B46D11E
:1025EC00334B00221A60FFF731FB386108E0FFF72C
:1025FC002DFB02463B69D31A022B01D903236DE054
:10260C00294B1B6803F00073002BF0D17B681B6A0D
:10261C00B3F5803F08D1244B5B6823F400327B6810
:10262C009B68214913434B601F4B5B6823F4741266
:10263C007B68196A7B685B6A0B431B4913434B60CD
:10264C001B4B01221A60FFF701FB386108E0FFF712
:10265C00FDFA02463B69D31A022B01D903233DE054
:10266C00114B1B6803F00073002BF0D035E0104BBE
:10267C0000221A60FFF7EAFA386108E0FFF7E6FA81
:10268C0002463B69D31A022B01D9032326E0064BE1
:10269C001B6803F00073002BF0D11EE07B68DB6934
:1026AC00012B07D1012319E00010024000700040FB
:1026BC00600042420B4B5B68FB60FB6803F48032AA
:1026CC007B681B6A9A4206D1FB6803F470127B6824
:1026DC005B6A9A4201D0012300E0002318461837A8
:1026EC00BD4680BD0010024080B584B000AF78605C
:1026FC0039607B68002B01D10123D0E06A4B1B6849
:10270C0003F007033A689A4210D9674B1B6823F011
:10271C00070265493B6813430B60634B1B6803F06E
:10272C0007033A689A4201D00123B8E07B681B6822
:10273C0003F00203002B20D07B681B6803F004031A
:10274C00002B05D0594B5B68584A43F4E063536047
:10275C007B681B6803F00803002B05D0534B5B68A8
:10276C00524A43F460535360504B5B6823F0F002C1
:10277C007B689B684D4913434B607B681B6803F077
:10278C000103002B40D07B685B68012B07D1474BC2
:10279C001B6803F40033002B15D101237FE07B6809
:1027AC005B68022B07D1414B1B6803F00073002BB5
:1027BC0009D1012373E03D4B1B6803F00203002B8E
:1027CC0001D101236BE0394B5B6823F003027B687A
:1027DC005B68364913434B60FFF738FAF8600AE040
:1027EC00FFF734FA0246FB68D31A41F2883293425F
:1027FC0001D9032353E02D4B5B6803F00C027B687B
:10280C005B689B009A42EBD1274B1B6803F00703D4
:10281C003A689A4210D2244B1B6823F007022249D3
:10282C003B6813430B60204B1B6803F007033A68AB
:10283C009A4201D0012332E07B681B6803F0040349
:10284C00002B08D0194B5B6823F4E0627B68DB68D3
:10285C00164913434B607B681B6803F00803002B7D
:10286C0009D0124B5B6823F460527B681B69DB0058
:10287C000E4913434B6000F021F802460B4B5B688A
:10288C001B0903F00F030A49CB5C22FA03F3094A34
:10289C001360094B1B681846FFF796F9002318467E
:1028AC001037BD4680BD00BF002002400010024022
:1028BC00E04500082C0000203000002090B48AB0C5
:1028CC0000AF294B3C1D0FCB84E80F0040F20123D5
:1028DC003B800023FB610023BB6100237B62002350
:1028EC007B6100233B62214B5B68FB61FB6903F05E
:1028FC000C03042B02D0082B03D02BE01C4B3B62A7
:10290C002BE0FB699B0C03F00F0328333B4413F8BB
:10291C00243C7B61FB6903F48033002B12D0134BF6
:10292C005B685B0C03F0010328333B4413F8283C31
:10293C00BB617B690E4A03FB02F2BB69B2FBF3F38A
:10294C007B6204E07B690B4A02FB03F37B627B6ACC
:10295C003B6202E0064B3B6200BF3B6A18462837DD
:10296C00BD4690BC704700BFD04500080010024027
:10297C0000127A0000093D0080B400AF024B1B68C6
:10298C001846BD4680BC70472C00002080B500AFB7
:10299C00FFF7F2FF0246054B5B681B0A03F00703C7
:1029AC000349CB5C22FA03F3184680BD00100240A9
:1029BC00F045000880B500AFFFF7DEFF0246054B7F
:1029CC005B68DB0A03F007030349CB5C22FA03F3D1
:1029DC00184680BD00100240F045000880B485B058
:1029EC0000AF78600A4B1B680A4AA2FB03235B0A00
:1029FC007A6802FB03F3FB6000BFFB685A1EFA60A7
:102A0C00002BF9D100BF00BF1437BD4680BC704706
:102A1C002C000020D34D621080B582B000AF7860DE
:102A2C007B68002B01D1012341E07B6893F83D309A
:102A3C00DBB2002B06D17B68002283F83C2078683F
:102A4C00FEF7E4FD7B68022283F83D207B681A6860
:102A5C007B6804331946104600F028FC7B68012281
:102A6C0083F846207B68012283F83E207B68012294
:102A7C0083F83F207B68012283F840207B68012289
:102A8C0083F841207B68012283F842207B68012275
:102A9C0083F843207B68012283F844207B68012261
:102AAC0083F845207B68012283F83D2000231846DB
:102ABC000837BD4680BD000080B485B000AF78609B
:102ACC007B6893F83D30DBB2012B01D001233AE057
:102ADC007B68022283F83D207B681B68DA687B6880
:102AEC001B6842F00102DA607B681B68184A93424B
:102AFC000ED07B681B68B3F1804F09D07B681B68D4
:102B0C00144A934204D07B681B68134A934211D138
:102B1C007B681B689B6803F00703FB60FB68062B54
:102B2C0010D07B681B681A687B681B6842F0010236
:102B3C001A6007E07B681B681A687B681B6842F0A8
:102B4C0001021A60002318461437BD4680BC70473A
:102B5C00002C0140000400400008004080B582B009
:102B6C0000AF78607B68002B01D1012341E07B68CA
:102B7C0093F83D30DBB2002B06D17B68002283F842
:102B8C003C20786800F039F87B68022283F83D20FD
:102B9C007B681A687B6804331946104600F086FB84
:102BAC007B68012283F846207B68012283F83E2053
:102BBC007B68012283F83F207B68012283F8402048
:102BCC007B68012283F841207B68012283F8422034
:102BDC007B68012283F843207B68012283F8442020
:102BEC007B68012283F845207B68012283F83D2015
:102BFC00002318460837BD4680BD80B483B000AFB3
:102C0C00786000BF0C37BD4680BC704780B584B07F
:102C1C0000AF786039603B68002B09D17B6893F872
:102C2C003E30DBB2012B14BF01230023DBB222E0C8
:102C3C003B68042B09D17B6893F83F30DBB2012B46
:102C4C0014BF01230023DBB215E03B68082B09D12C
:102C5C007B6893F84030DBB2012B14BF01230023B7
:102C6C00DBB208E07B6893F84130DBB2012B14BF78
:102C7C0001230023DBB2002B01D001235EE03B6873
:102C8C00002B04D17B68022283F83E2013E03B68C2
:102C9C00042B04D17B68022283F83F200BE03B68B5
:102CAC00082B04D17B68022283F8402003E07B6868
:102CBC00022283F841207B681B6801223968184680
:102CCC0000F074FD7B681B681E4A934207D17B6839
:102CDC001B685A6C7B681B6842F400425A647B6820
:102CEC001B68184A93420ED07B681B68B3F1804F67
:102CFC0009D07B681B68144A934204D07B681B681C
:102D0C00124A934211D17B681B689B6803F007033E
:102D1C00FB60FB68062B10D07B681B681A687B680D
:102D2C001B6842F001021A6007E07B681B681A6896
:102D3C007B681B6842F001021A60002318461037AA
:102D4C00BD4680BD002C014000040040000800403E
:102D5C0080B582B000AF78607B681B681B6903F09C
:102D6C000203022B22D17B681B68DB6803F0020391
:102D7C00022B1BD17B681B686FF002021A617B6807
:102D8C0001221A777B681B689B6903F00303002BF5
:102D9C0003D0786800F06FFA05E0786800F062FA0A
:102DAC00786800F071FA7B6800221A777B681B68E0
:102DBC001B6903F00403042B22D17B681B68DB68BE
:102DCC0003F00403042B1BD17B681B686FF0040217
:102DDC001A617B6802221A777B681B689B6903F473
:102DEC004073002B03D0786800F045FA05E0786852
:102DFC0000F038FA786800F047FA7B6800221A77FE
:102E0C007B681B681B6903F00803082B22D17B68C5
:102E1C001B68DB6803F00803082B1BD17B681B685D
:102E2C006FF008021A617B6804221A777B681B68B2
:102E3C00DB6903F00303002B03D0786800F01BFA66
:102E4C0005E0786800F00EFA786800F01DFA7B68EF
:102E5C0000221A777B681B681B6903F01003102B88
:102E6C0022D17B681B68DB6803F01003102B1BD18D
:102E7C007B681B686FF010021A617B6808221A7756
:102E8C007B681B68DB6903F44073002B03D0786804
:102E9C0000F0F1F905E0786800F0E4F9786800F0EA
:102EAC00F3F97B6800221A777B681B681B6903F0B7
:102EBC000103012B0ED17B681B68DB6803F0010357
:102ECC00012B07D17B681B686FF001021A617868CF
:102EDC00FEF782FA7B681B681B6903F08003802B6A
:102EEC000ED17B681B68DB6803F08003802B07D155
:102EFC007B681B686FF080021A61786800F0E1FC57
:102F0C007B681B681B6903F04003402B0ED17B6868
:102F1C001B68DB6803F04003402B07D17B681B6800
:102F2C006FF040021A61786800F0B7F97B681B6893
:102F3C001B6903F02003202B0ED17B681B68DB6818
:102F4C0003F02003202B07D17B681B686FF0200255
:102F5C001A61786800F0ACFC00BF0837BD4680BD34
:102F6C0080B584B000AFF860B9607A60FB6893F804
:102F7C003C30012B01D10223ACE0FB68012283F829
:102F8C003C207B680C2B00F29F8001A252F823F0AE
:102F9C00D12F0008D5300008D5300008D5300008F6
:102FAC0011300008D5300008D5300008D5300008A5
:102FBC0053300008D5300008D5300008D530000853
:102FCC0093300008FB681B68B968184600F0D0F90C
:102FDC00FB681B689A69FB681B6842F008029A61DF
:102FEC00FB681B689A69FB681B6822F004029A61F3
:102FFC00FB681B689969BB681A69FB681B680A4304
:10300C009A6162E0FB681B68B968184600F016FA12
:10301C00FB681B689A69FB681B6842F400629A6142
:10302C00FB681B689A69FB681B6822F480629A61D2
:10303C00FB681B689969BB681B691A02FB681B68F3
:10304C000A439A6141E0FB681B68B968184600F0B6
:10305C005FFAFB681B68DA69FB681B6842F00802C0
:10306C00DA61FB681B68DA69FB681B6822F00402F2
:10307C00DA61FB681B68D969BB681A69FB681B6855
:10308C000A43DA6121E0FB681B68B968184600F056
:10309C00A9FAFB681B68DA69FB681B6842F40062DA
:1030AC00DA61FB681B68DA69FB681B6822F48062D2
:1030BC00DA61FB681B68D969BB681B691A02FB687B
:1030CC001B680A43DA6100E000BFFB68002283F84A
:1030DC003C20002318461037BD4680BD80B584B017
:1030EC0000AF786039607B6893F83C30012B01D1DC
:1030FC000223B3E07B68012283F83C207B68022228
:10310C0083F83D207B681B689B68FB60FB6823F0A1
:10311C007703FB60FB6823F47F43FB607B681B68D1
:10312C00FA689A603B681B68B3F5005F3ED0B3F554
:10313C00005F00F28780B3F5805F00F08580B3F507
:10314C00805F7FD8702B1AD0702B7BD8602B50D01F
:10315C00602B77D8502B3CD0502B73D8402B58D0A9
:10316C00402B6FD8302B64D0302B6BD8202B60D0F9
:10317C00202B67D8002B5CD0102B5AD062E07B68D8
:10318C0018683B6899683B685A683B68DB6800F0D4
:10319C00EEFA7B681B689B68FB60FB6843F0770367
:1031AC00FB607B681B68FA689A604EE07B68186865
:1031BC003B6899683B685A683B68DB6800F0D7FA53
:1031CC007B681B689A687B681B6842F480429A6033
:1031DC003BE07B6818683B6859683B68DB681A46BB
:1031EC0000F04EFA7B681B685021184600F0A5FAD7
:1031FC002BE07B6818683B6859683B68DB681A46AB
:10320C0000F06CFA7B681B686021184600F095FA98
:10321C001BE07B6818683B6859683B68DB681A469A
:10322C0000F02EFA7B681B684021184600F085FAE6
:10323C000BE07B681A683B681B681946104600F067
:10324C007CFA02E000BF00E000BF7B68012283F83B
:10325C003D207B68002283F83C2000231846103761
:10326C00BD4680BD80B483B000AF786000BF0C3722
:10327C00BD4680BC704780B483B000AF786000BF9F
:10328C000C37BD4680BC704780B483B000AF78600B
:10329C0000BF0C37BD4680BC704780B483B000AF14
:1032AC00786000BF0C37BD4680BC704780B485B0D9
:1032BC0000AF786039607B681B68FB607B68294ACB
:1032CC0093420BD07B68B3F1804F07D07B68264AC2
:1032DC00934203D07B68254A934208D1FB6823F0C4
:1032EC007003FB603B685B68FA681343FB607B68A8
:1032FC001C4A93420BD07B68B3F1804F07D07B689C
:10330C00194A934203D07B68184A934208D1FB6850
:10331C0023F44073FB603B68DB68FA681343FB6083
:10332C00FB6823F080023B685B691343FB607B689E
:10333C00FA681A603B689A687B68DA623B681A68BC
:10334C007B689A627B68074A934203D13B681A698F
:10335C007B681A637B6801225A6100BF1437BD4633
:10336C0080BC7047002C0140000400400008004065
:10337C0080B487B000AF786039607B681B6A23F03B
:10338C0001027B681A627B681B6A7B617B685B68E5
:10339C003B617B689B69FB60FB6823F07003FB60FF
:1033AC00FB6823F00303FB603B681B68FA6813435C
:1033BC00FB607B6923F002037B613B689B687A6945
:1033CC0013437B617B681C4A93420CD17B6923F0CD
:1033DC0008037B613B68DB687A6913437B617B691B
:1033EC0023F004037B617B68134A934211D13B6940
:1033FC0023F480733B613B6923F400733B613B68AE
:10340C005B693A6913433B613B689B693A691343B7
:10341C003B617B683A695A607B68FA689A613B68E1
:10342C005A687B685A637B687A691A6200BF1C37DA
:10343C00BD4680BC704700BF002C014080B487B0F3
:10344C0000AF786039607B681B6A23F010027B68E0
:10345C001A627B681B6A7B617B685B683B617B687B
:10346C009B69FB60FB6823F4E043FB60FB6823F47F
:10347C004073FB603B681B681B02FA681343FB60DC
:10348C007B6923F020037B613B689B681B017A6995
:10349C0013437B617B681D4A93420DD17B6923F0FA
:1034AC0080037B613B68DB681B017A6913437B619A
:1034BC007B6923F040037B617B68144A934213D1F0
:1034CC003B6923F480633B613B6923F400633B61FC
:1034DC003B685B699B003A6913433B613B689B69A2
:1034EC009B003A6913433B617B683A695A607B687D
:1034FC00FA689A613B685A687B689A637B687A6958
:10350C001A6200BF1C37BD4680BC7047002C0140BE
:10351C0080B487B000AF786039607B681B6A23F495
:10352C0080727B681A627B681B6A7B617B685B6854
:10353C003B617B68DB69FB60FB6823F07003FB601D
:10354C00FB6823F00303FB603B681B68FA681343BA
:10355C00FB607B6923F400737B613B689B681B02F7
:10356C007A6913437B617B681D4A93420DD17B6959
:10357C0023F400637B613B68DB681B027A691343AD
:10358C007B617B6923F480637B617B68144A934283
:10359C0013D13B6923F480533B613B6923F4005303
:1035AC003B613B685B691B013A6913433B613B68B8
:1035BC009B691B013A6913433B617B683A695A600A
:1035CC007B68FA68DA613B685A687B68DA637B6807
:1035DC007A691A6200BF1C37BD4680BC704700BFB9
:1035EC00002C014080B487B000AF786039607B68F4
:1035FC001B6A23F480527B681A627B681B6A3B61EE
:10360C007B685B687B617B68DB69FB60FB6823F430
:10361C00E043FB60FB6823F44073FB603B681B6872
:10362C001B02FA681343FB603B6923F400533B61B4
:10363C003B689B681B033A6913433B617B680F4AE9
:10364C00934209D17B6923F480437B613B685B69BE
:10365C009B017A6913437B617B687A695A607B684A
:10366C00FA68DA613B685A687B681A647B683A6965
:10367C001A6200BF1C37BD4680BC7047002C01404D
:10368C0080B487B000AFF860B9607A60FB681B6AE1
:10369C007B61FB681B6A23F00102FB681A62FB6802
:1036AC009B693B613B6923F0F0033B617B681B0129
:1036BC003A6913433B617B6923F00A037B617A69A6
:1036CC00BB6813437B61FB683A699A61FB687A6952
:1036DC001A6200BF1C37BD4680BC704780B487B0EF
:1036EC0000AFF860B9607A60FB681B6A23F01002C7
:1036FC00FB681A62FB689B697B61FB681B6A3B6118
:10370C007B6923F470437B617B681B037A691343E9
:10371C007B613B6923F0A0033B61BB681B013A69E9
:10372C0013433B61FB687A699A61FB683A691A62D8
:10373C0000BF1C37BD4680BC704780B485B000AF5D
:10374C00786039607B689B68FB60FB6823F07003D2
:10375C00FB603A68FB68134343F00703FB607B682C
:10376C00FA689A6000BF1437BD4680BC704780B4BD
:10377C0087B000AFF860B9607A603B60FB689B680B
:10378C007B617B6923F47F437B613B681A027B6816
:10379C001A43BB6813437A6913437B61FB687A69EC
:1037AC009A6000BF1C37BD4680BC704780B487B0A0
:1037BC0000AFF860B9607A60BB6803F01F030122A8
:1037CC0002FA03F37B61FB681A6A7B69DB431A40DC
:1037DC00FB681A62FB681A6ABB6803F01F037968FE
:1037EC0001FA03F31A43FB681A6200BF1C37BD468B
:1037FC0080BC704780B485B000AF786039607B685E
:10380C0093F83C30012B01D1022346E07B68012266
:10381C0083F83C207B68022283F83D207B681B6880
:10382C005B68FB607B681B689B68BB60FB6823F074
:10383C007003FB603B681B68FA681343FB607B6892
:10384C001B68FA685A607B681B68164A93420ED054
:10385C007B681B68B3F1804F09D07B681B68124AE8
:10386C00934204D07B681B68104A93420CD1BB680E
:10387C0023F08003BB603B685B68BA681343BB6092
:10388C007B681B68BA689A607B68012283F83D20CC
:10389C007B68002283F83C20002318461437BD4671
:1038AC0080BC7047002C0140000400400008004020
:1038BC0080B483B000AF786000BF0C37BD4680BCCD
:1038CC00704780B483B000AF786000BF0C37BD4642
:1038DC0080BC704780B582B000AF78607B68002BED
:1038EC0001D101233FE07B6893F83D30DBB2002B24
:1038FC0006D17B68002283F83C207868FDF7F0FE47
:10390C007B68242283F83D207B681B68DA687B681F
:10391C001B6822F40052DA60786800F005F97B68C5
:10392C001B681A697B681B6822F490421A617B68D9
:10393C001B685A697B681B6822F02A025A617B68F3
:10394C001B68DA687B681B6842F40052DA607B689B
:10395C0000221A647B68202283F83D207B68202299
:10396C0083F83E20002318460837BD4680BD80B53D
:10397C008AB002AFF860B9603B601346FB8000234D
:10398C007B61FB6893F83D30DBB2202B7CD1BB68AC
:10399C00002B02D0FB88002B01D1012375E0FB68C2
:1039AC0093F83C30012B01D102236EE0FB6801221D
:1039BC0083F83C20FB6800221A64FB68212283F800
:1039CC003D20FEF743F97861FB68FA889A84FB681E
:1039DC00FA88DA84FB689B68B3F5805F08D1FB68D2
:1039EC001B69002B04D10023FB61BB68BB6103E0A6
:1039FC00BB68FB610023BB61FB68002283F83C20A1
:103A0C002AE03B6800937B6900228021F86800F073
:103A1C0040F80346002B01D0032336E0FB69002B52
:103A2C000BD1BB691B881A46FB681B68C2F30802E2
:103A3C005A60BB690233BB6107E0FB691A78FB680B
:103A4C001B685A60FB690133FB61FB68DB8C9BB222
:103A5C00013B9AB2FB68DA84FB68DB8C9BB2002BCF
:103A6C00CFD13B6800937B6900224021F86800F0BD
:103A7C0010F80346002B01D0032306E0FB6820223C
:103A8C0083F83D20002300E0022318462037BD4672
:103A9C0080BD80B584B000AFF860B9603B60134660
:103AAC00FB712CE0BB69B3F1FF3F28D0BB69002B45
:103ABC0007D0FEF7CBF802463B68D31ABA699A4294
:103ACC001DD2FB681B68DA68FB681B6822F4D07295
:103ADC00DA60FB681B685A69FB681B6822F00102FC
:103AEC005A61FB68202283F83D20FB68202283F872
:103AFC003E20FB68002283F83C2003230FE0FB6888
:103B0C001B681A68BB681340BA689A420CBF012341
:103B1C000023DBB21A46FB799A42C3D00023184625
:103B2C001037BD4680BD000080B584B000AF786012
:103B3C007B681B681B6923F440517B68DA687B68DF
:103B4C001B680A431A617B689A687B681B691A4375
:103B5C007B685B691343BB607B681B68DB6823F481
:103B6C00B05323F00C037A681268B9680B43D36026
:103B7C007B681B685B6923F440717B689A697B687E
:103B8C001B680A435A617B681B682C4A934203D119
:103B9C00FEF710FFF86002E0FEF7F8FEF860FA6836
:103BAC0013469B0013449A001A447B685B689B0085
:103BBC00B2FBF3F3224AA2FB03235B091901FA6857
:103BCC0013469B0013449A001A447B685B689B0065
:103BDC00B2FBF3F21A4BA3FB02035B09642000FB5C
:103BEC0003F3D31A1B013233154AA2FB03235B09DF
:103BFC0003F0F0031944FA6813469B0013449A002F
:103C0C001A447B685B689B00B2FBF3F20C4BA3FB82
:103C1C0002035B09642000FB03F3D31A1B0132334C
:103C2C00074AA2FB03235B0903F00F027B681B68A6
:103C3C000A449A6000BF1037BD4680BD0038014071
:103C4C001F85EB51014B1868704700BF38000020EE
:103C5C0070B500260C4D0D4C641BA410A64209D166
:103C6C0000F09CFC00260A4D0A4C641BA410A642D2
:103C7C0005D170BD55F8043B98470136EEE755F871
:103C8C00043B98470136F2E72C4600082C46000806
:103C9C002C4600083046000803460244934200D1EB
:103CAC00704703F8011BF9E70EB46FF0004100B543
:103CBC009CB01DAB029006900791049108480949ED
:103CCC0053F8042B0591006802A9019300F068F8E1
:103CDC000022029B1A701CB05DF804EB03B0704715
:103CEC00380000200802FFFF2DE9F0478E6882465D
:103CFC009E420C4690461F4638D88A8912F4906F23
:103D0C0032D0256809690133A5EB010965694B447B
:103D1C0005EB450505EBD5756D109D4238BF1D466D
:103D2C00530531D5294600F06FFB064650B90C23DC
:103D3C004FF0FF30CAF80030A38943F04003A38151
:103D4C00BDE8F0874A46216900F0CEFAA38923F436
:103D5C00906343F08003A38126614E4426603E4667
:103D6C006561A5EB0905A560BE4200D93E46324609
:103D7C004146206800F0C6FAA36800209B1BA36094
:103D8C00236833442360DBE72A4600F0B1FB064688
:103D9C000028E1D15046216900F0CEFAC7E70000B7
:103DAC002DE9F04F98468B8907461B060D461446A5
:103DBC009DB00ED50B6963B9402100F025FB28603E
:103DCC00286120B90C233B604FF0FF30D1E0402339
:103DDC006B610023099320238DF8293030234FF099
:103DEC000109CDF80C80DFF8A4818DF82A30234628
:103DFC009A4613F8012B0AB1252AF9D1BAEB040B18
:103E0C000BD05B46224629463846FFF76DFF013042
:103E1C0000F0AA80099A5A4409929AF80030002BB3
:103E2C0000F0A28000234FF0FF32CDE905230AF108
:103E3C00010A049307938DF853301A9354460522C4
:103E4C0014F8011B514800F041FA049AD8B9D00675
:103E5C0044BF20238DF85330110744BF2B238DF81A
:103E6C0053309AF800302A2B15D0544600204FF0CE
:103E7C000A0C079A214611F8013B303B092B4ED90D
:103E8C00B0B1079214E0A0EB080309FA03F3134353
:103E9C00A2460493D2E7039B191D1B680391002BC8
:103EAC00BBBF5B4242F0020207930793B8BF049278
:103EBC0023782E2B0CD163782A2B35D1039B02341B
:103ECC001A1D1B680392002BB8BF4FF0FF330593EC
:103EDC00DFF8BCA003225046217800F0F7F940B17E
:103EEC004023A0EB0A0003FA00F0049B01340343C7
:103EFC00049314F8011B062226488DF8281000F0B4
:103F0C00E5F9002838D0244B1BBB039B073323F067
:103F1C00070308330393099B3344099367E70C4663
:103F2C0001200CFB0232A5E700234FF00A0C1946C6
:103F3C0001340593204610F8012B303A092A03D995
:103F4C00002BC5D00591C3E7044601230CFB0121CE
:103F5C00F0E703AB00932A463846104B04A9AFF3A5
:103F6C000080421C0646D6D1AB895B063FF52CAFD0
:103F7C0009981DB0BDE8F08F03AB00932A46384674
:103F8C00064B04A900F07CF8EBE700BFF8450008ED
:103F9C00FE4500080246000800000000F53C000841
:103FAC002DE9F047164699468A680B6907469342F5
:103FBC00B8BF1346336091F843200C46DDF82080DF
:103FCC000AB1013333602368990642BF3368023368
:103FDC003360256815F0060506D104F1190AE3686B
:103FEC0032689B1AAB4228DC94F84320131E2268DB
:103FFC0018BF012392062DD44946384604F14302DA
:10400C00C047013020D02368E56803F00603042B79
:10401C0018BF002532684FF00006A36808BFAD1A20
:10402C00226908BF25EAE5759342C4BF9B1AED18B7
:10403C001A34B5421AD1002008E0012352464946F1
:10404C003846C047013003D14FF0FF30BDE8F08750
:10405C000135C4E73020E11881F843005A1C94F86C
:10406C0045102244023382F84310C5E7012322464F
:10407C0049463846C0470130E6D00136D9E7000042
:10408C002DE9FF470F7E9146782F80460C469A46C5
:10409C000C9D01F1430207D8622F0AD8002F00F0C3
:1040AC00D980582F00F0A48004F1420584F84270A6
:1040BC003AE0A7F16303152BF6D801A151F823F0D0
:1040CC002541000839410008B5400008B5400008FA
:1040DC00B5400008B540000839410008B54000085B
:1040EC00B5400008B5400008B5400008474200083C
:1040FC006941000829420008B5400008B540000895
:10410C0069420008B540000869410008B540000844
:10411C00B5400008314200082B681A1D1B682A6044
:10412C0004F1420584F842300123A4E02068296898
:10413C00060601F104030AD50E682B60002E03DA83
:10414C002D23764284F843300A235E4819E00E682A
:10415C0010F0400F2B6018BF36B2EFE72B682068C9
:10416C00191D2960010601D51E6802E04606FBD523
:10417C001E886F2F0CBF08230A235248002184F895
:10418C0043106568002DA8BF2168A560A4BF21F06D
:10419C00040121600EB9002D4DD01546B6FBF3F18C
:1041AC0003FB1167C75D05F8017D3746BB420E4620
:1041BC00F4D9082B0BD12368DE0708D52369616875
:1041CC009942DEBF302305F8013C05F1FF35521B47
:1041DC0022614B4621464046CDF800A003AAFFF7CA
:1041EC00DFFE01304CD14FF0FF3004B0BDE8F0875A
:1041FC00344881F845702968236851F8046B2960AC
:10420C001D0614D5DF0744BF43F0200323601EB9FD
:10421C00236823F0200323601023AFE7236843F0C7
:10422C00200323607823284884F84530E3E75906B7
:10423C0048BFB6B2E6E71546BBE72B682668181DE3
:10424C006169286035061B6801D5196002E07006AB
:10425C00FBD51980002315462361BAE72B68002192
:10426C001A1D2A601D686268284600F02FF808B1F4
:10427C00401B606063682361002384F84330A8E727
:10428C002A46494640462369D0470130ABD02368C3
:10429C009B0713D4E068039B9842B8BF1846A4E769
:1042AC000123324649464046D04701309BD0013568
:1042BC00E36803995B1AAB42F2DCEBE7002504F1EF
:1042CC001906F5E7094600081A460008034610B51A
:1042DC00C9B202449342184601D1002003E004788D
:1042EC0001338C42F6D110BD0A44914200F1FF33E8
:1042FC0000D1704710B511F8014B914203F8014FF2
:10430C00F9D110BD884210B501EB020402D98442E8
:10431C00234607D8431EA14208D011F8012B03F8FD
:10432C00012FF8E7014602448A4200D110BD13F870
:10433C00014D02F8014DF7E738B50546002940D08C
:10434C0051F8043C0C1F002BB8BFE41800F010F916
:10435C001C4A136833B9636014602846BDE83840C2
:10436C0000F00CB9A34208D9206821188B4201BF78
:10437C0019685B6809182160EDE71A465B680BB198
:10438C00A342FAD911685018A0420BD120680144FD
:10439C00501883421160E0D118685B6801441160C9
:1043AC005360DAE702D90C232B60D6E7206821187A
:1043BC008B4201BF19685B68091821606360546007
:1043CC00CBE738BD1402002070B50E4E0C46316898
:1043DC00054611B900F0BCF830602146284600F0C3
:1043EC00B7F8431C0AD0C41C24F00304A04207D025
:1043FC00211A284600F0ACF8013001D14FF0FF34FF
:10440C00204670BD180200202DE9F041CD1C25F08E
:10441C00030508350C2D38BF0C25002D074601DB94
:10442C00A94205D90C2300263B603046BDE8F0813B
:10443C002E4E00F09DF833681C4634BB2946384696
:10444C00FFF7C2FF431C04464DD134682646002EAC
:10445C0040D123683146384604EB030800F078F865
:10446C0080453AD1216803356D1A25F003050835CE
:10447C000C2D38BF0C2538462946FFF7A5FF013017
:10448C002BD023682B4423600EE02268521B1ED4D1
:10449C000B2A16D96119A342256018BF59606368AD
:1044AC0008BF316062514B60384604F10B0600F0D6
:1044BC0065F826F00706231DF21AB6D09B1BA350F5
:1044CC00B3E76268A3420CBF32605A60ECE7234644
:1044DC006468B2E734467668B9E70C2338463B602B
:1044EC0000F04CF8A1E72560DEE700BF14020020C5
:1044FC002DE9F041804614460E4621B91146BDE81F
:10450C00F041FFF781BF2AB9FFF716FF2546284671
:10451C00BDE8F08100F038F88442074602D8B4EBCD
:10452C00500F12D821464046FFF76EFF0546002873
:10453C00EDD0BC422246314628BF3A46FFF7D4FEA6
:10454C0031464046FFF7F8FEE1E73546DFE700006D
:10455C0038B50023054D044608462B60FDF73CF9A1
:10456C00431C02D12B6803B1236038BD1C02002010
:10457C00014800F011B800BF20020020014800F0F3
:10458C000CB800BF2002002051F8043C181F002B6F
:10459C00BCBF0B58C018704770477047F8B500BFC8
:1045AC00F8BC08BC9E467047F8B500BFF8BC08BC08
:0445BC009E46704760
:1045C00021375345473A25303264230D0A00000055
:1045D00002030405060708090A0B0C0D0E0F101044
:1045E00000000000000000000102030406070809A3
:1045F0000000000001020304232D302B2000686C12
:104600004C006566674546470030313233343536F5
:10461000373839414243444546003031323334352E
:0C4620003637383961626364656600005B
:04462C003101000850
:044630000D01000870
:10463400010000000100000012000000F40100006D
:10464400C80000002C010000F4010000C8000000B4
:104654002C01000001000000150000000024F400FB
:1046640010000000010000003C00002000000000D9
:104674000000000000000000000000000000000036
:104684000000000000000000000000000000000026
:104694000000000000000000000000000000000016
:1046A4000000000000000000000000000000000006
:1046B40000000000000000000000000000000000F6
:0C46C400000000000000000000000000EA
:0400000508001B5D77
:00000001FF
